S01900005333324B5F626F6F745F623137303731382E73726563FC
S1130000007000201104000051040000510400009D
S113001051040000510400005104000000000000DD
S11300200000000000000000000000005104000077
S113003051040000000000005104000051040000BD
S11300405104000051040000510400005104000058
S11300505104000051040000510400005104000048
S11300605104000051040000510400005104000038
S11300705104000051040000510400005104000028
S113008051040000510400006918000051040000EC
S11300905104000051040000510400005104000008
S11300A051040000510400005104000051040000F8
S11300B051040000510400005104000051040000E8
S11300C051040000510400005104000051040000D8
S11303F0510400005104000051040000FFFFFFFFFE
S1130400FFFFFFFFFFFFFFFFFFFFFFFFFE7FFFFF79
S113041072B60B490A4A0A4B094C094D084E084F5B
S1130420B846B946BA46BB46BC4606488546064861
S113043080470648804762B600F066FFFEE700008A
S11304400000000000700020550400008504000036
S1130450FFF7FEBF80B400AF084B094A5A60074B50
S11304605B68064B42F220121A60044B4FF6FF728F
S11304709A60BD465DF8047B704700BF00200540CC
S113048020C528D980B48BB000AF304B3B62304BD1
S11304907B61304BFB60304BFB61304B3B61304B3D
S11304A0BB60304BBB61304B7B60304A304B9A426F
S11304B018D000237B620AE02D4A7B6A52F823207D
S11304C02A497B6A41F823207B6A01337B62294BEA
S11304D09B087A6A9A42EFD34FF0E023234AC3F889
S11304E0082D04E04FF0E023214AC3F8082D09E069
S11304F07B691A783B6A1A703B6A01333B627B69F9
S113050001337B61FA687B699A42F1D109E03B6966
S11305101A78FB691A70FB690133FB613B6901338B
S11305203B61BA683B699A42F1D105E0BB6900229C
S11305301A70BB690133BB617A68BB699A42F5D111
S11305402C37BD465DF8047B704700BF0084FF1F55
S113055008200000082000000084FF1F082000007D
S113056094200000000000205C1100200080FF1F88
S1130570000000000004000080B485B000AF786083
S113058039600023FB6017E0104B1A68104B1B689E
S11305909A4211D0FB685A1CFA607A681A440B4BD1
S11305A01B68591C094801600A49CB5C1370074B4E
S11305B01B68DBB2054A1360FA683B689A42E3D1D0
S11305C01437BD465DF8047B704700BF000100206E
S11305D0040100200000002080B586B000AF7860E0
S11305E00B46FB7007F1140318460221FFF7C4FF02
S11305F078688021FFF7C0FF07F10C03184601F06B
S113060045F907F10C0318467968802201F04AF98C
S113061007F10C0207F110031046194601F082F9A4
S113062007F1130318460121FFF7A6FF07F1120390
S113063018460121FFF7A0FFFB7C1B029AB2BB7C8A
S11306409BB213439BB2FB823B8AFA8A9A4209D13A
S11306503B7DFA789A4205D17A7DFB78DB43DBB2A5
S11306609A4202D04FF0FF3300E0002318461837B7
S1130670BD4680BD80B582B000AF78600B467B80FC
S1130680114B1B68C3F30B03002B04D10E4B1B68E7
S1130690184601F0A3F87B880C4879681A4601F0E3
S11306A079FC094B1A687B88104608491A4601F000
S11306B0BBF87A88044B1B681344034A1360002375
S11306C018460837BD4680BD1C11002008010020D3
S11306D080B400AF064B4FF4A0421A60054B0022D1
S11306E01A60054B00221A60BD465DF8047B704712
S11306F01C110020000100200401002080B500AF7F
S1130700432000F029F801F023FC00F03DF80346F3
S1130710002B01D0012300E00023184680BD00BF58
S113072080B483B000AF0346FB71094B1B685A1CAD
S113073007490A600749FA79CA54054B1B68DBB2BA
S1130740034A13600C37BD465DF8047B704700BF55
S1130750040100200000002080B584B000AF0346EF
S1130760FB71FB1D40F223101946012201F0A4FB8A
S11307700023FB6002E0FB680133FB60FB68FE2B97
S1130780F9D91037BD4680BD80B400AF064B1A6856
S1130790064B1B689A4214BF01230023DBB21846A0
S11307A0BD465DF8047B7047000100200401002071
S11307B080B5A4B000AF012387F88B300023C7F8BD
S11307C084300023C7F88C3080E007F18303184697
S11307D00121FFF7D1FE97F88330013B1A2B71D822
S11307E001A252F823F000BF55080000C50800001C
S11307F0C5080000AB080000C5080000C5080000DB
S1130800C5080000C5080000C5080000C5080000B0
S1130810C5080000C5080000C5080000C5080000A0
S1130820C5080000C5080000C5080000C508000090
S1130830C5080000C5080000C5080000C508000080
S1130840C5080000BB080000C5080000C50800007A
S1130850BB0800003A4697F88B3010461946FFF75C
S1130860BBFEC7F88C00D7F88C30002B14D197F856
S11308708B30013387F88B30D7F884308033C7F856
S113088084303B4618468021FFF7F4FE0620FFF72C
S113089063FF01F05DFB07E00023C7F88C301520EF
S11308A0FFF75AFF01F054FB10E00620FFF754FF56
S11308B0D7F88430C7F88C3008E04FF0FF33C7F81E
S11308C08C3003E01520FFF747FF00BFD7F88C30CA
S11308D0002B3FF47AAF012318469037BD4680BD04
S11308E080B584B000AF786039600023FB813B4A57
S11308F03B685360394B01221A727B689A79374BF3
S11309001A707B68DA79354B5A700023BB8102E098
S1130910BB890133BB81BB894FF6FF729342F7D188
S1130920042000F011F90346FB81FB89002B05D15B
S11309307B68184600F054F80346FB81FB89002BC2
S113094006D17B680633184600F090F80346FB8115
S1130950FB89002B07D17B685B7A1846002100F0E5
S113096063F90346FB81FB89002B06D17B680A33BC
S1130970184600F09BF90346FB81FB89002B06D146
S11309807B681B7B184600F0B5F90346FB81FB89A5
S1130990002B06D17B680D33184600F0CBF90346D3
S11309A0FB81FB89002B06D17B682833184600F0B5
S11309B023FA0346FB81FB89002B06D17B681B7A53
S11309C0184600F0C1F80346FB81044B00221A725A
S11309D0FB8918461037BD4680BD00BF08110020B2
S11309E080B586B000AF78600023FB820023BB8211
S11309F07B683B613B691A783B695B781343DAB2E5
S1130A003B699B781343DBB2FB7207F10B031020A5
S1130A101946002200F098FB0346BB820023FB72B8
S1130A20BB8A002B16D17B680333FB60FB681A7802
S1130A30FB685B781343DAB2FB689B781343DBB241
S1130A40FB7207F10B031C201946002200F07CFB0B
S1130A500346BB82BB8A002B02D040F60103FB8213
S1130A60FB8A18461837BD4680BD00BF80B584B0E8
S1130A7000AF78600023FB810023BB810023FB725D
S1130A800123BB722F4B1A787B681B789A4209D1D9
S1130A902C4B5A787B685B789A4203D1294B1B7A9A
S1130AA0002B08D00123FB7207F10A03184600F05B
S1130AB093F80346FB81FB7A002B0AD0FB89002BB9
S1130AC007D1BB7A042B04D0042000F03DF8034680
S1130AD0FB81FB89002B0FD17B681A787B685B78DC
S1130AE01343DBB27B7207F109030020194600228D
S1130AF000F02AFB0346BB81FB7A002B16D0BB898E
S1130B00002B13D1FB89002B10D1BB7A042B0DD001
S1130B10BB7A184600F018F80346FB817B681A7804
S1130B20084B1A707B685A78064B5A70BB89002BA5
S1130B3002D040F60103FB81FB8918461037BD46FD
S1130B4080BD00BF0811002080B588B000AF034607
S1130B50FB710023FB830023BB83FB79FB76FB79CA
S1130B60012B05D0FB79042B02D0FB79072B18D17C
S1130B70FB79012B02D0FB79042B11D107F1080377
S1130B80184600F05DF90346FB83FB8B002B07D16D
S1130B9007F10803184600F033FA0346FB8303E029
S1130BA002E040F60203FB83FB8B002B08D107F124
S1130BB01B0301201946002200F0C6FA0346BB833A
S1130BC0BB8B002B02D040F60103FB83FB8B184642
S1130BD02037BD4680BD00BF80B584B000AF7860CB
S1130BE00023FB810023BB810023FB7207F10B036D
S1130BF0012000211A4600F0A7FA0346BB81BB89F5
S1130C00002B05D1FB7A03F00703DAB27B681A7074
S1130C10BB89002B02D040F60103FB81FB891846F7
S1130C201037BD4680BD00BF80B584B000AF034619
S1130C303960FB710023FB810023BB81FB79002B0E
S1130C4002D0FB79042B22D1FB79FB723B68002B89
S1130C5013D03B681B78002B03D03B681B78032B15
S1130C600BD83B681B78DBB203F00303DAB2FB7AE0
S1130C70DBB21343DBB2DBB2FB7207F10B030220DE
S1130C801946002200F060FA0346BB8102E040F6F8
S1130C900203FB81BB89002B02D040F60103FB81D8
S1130CA0FB8918461037BD4680BD00BF80B584B0AF
S1130CB000AF78600023FB810023BB817B681A7836
S1130CC07B685B781343DBB2FB7207F10B030420F0
S1130CD01946002200F038FA0346BB81BB89002B79
S1130CE002D040F60103FB81FB8918461037BD464C
S1130CF080BD00BF80B584B000AF0346FB71002304
S1130D00FB810023BB81FB79FB7207F10B030A20F3
S1130D101946002200F018FA0346BB81BB89002B58
S1130D2002D040F60103FB81FB8918461037BD460B
S1130D3080BD00BF80B586B000AF78600023FB8221
S1130D400023BB827B683B613B691A783B695B7813
S1130D501343DAB23B699B781343DAB23B69DB781D
S1130D601343DBB2FB7207F10B0320201946002268
S1130D7000F0EAF90346BB820023FB72BB8A002B16
S1130D8018D17B680433FB60FB681A78FB685B78D6
S1130D901343DAB2FB689B781343DBB2FB7207F1AF
S1130DA00B0323201946002200F0CEF90346BB8230
S1130DB00023FB72BB8A002B0BD17B68DB79FB72AF
S1130DC007F10B0326201946002200F0BDF9034663
S1130DD0BB82BB8A002B04D1786800F0FFF903467C
S1130DE0BB82BB8A002B02D040F60103FB82FB8A44
S1130DF018461837BD4680BD80B584B000AF786012
S1130E000023FB810023BB817B681A787B685B78B5
S1130E101343DBB2FB7207F10B034C20194600228B
S1130E2000F092F90346BB81BB89002B02D040F647
S1130E300103FB81FB8918461037BD4680BD00BF06
S1130E4080B58AB000AF78600023FB840023BB84A4
S1130E50786800F029FA0023FB7307F10F03602080
S1130E6000211A4600F070F90346BB847B683B629C
S1130E70BB8C002B17D1FB7B03F00803DAB23B6A6F
S1130E801A70FB7B03F00403DAB23B6A5A70FB7BF3
S1130E9003F00203DAB23B6A9A70FB7B03F00103AE
S1130EA0DAB23B6ADA700023FB733B6ADB78012B0E
S1130EB026D107F10F03612000211A4600F044F9FE
S1130EC00346BB84BB8C002B1AD17B680433FB61C3
S1130ED0FB7B03F01003DAB2FB691A70FB7B03F0AF
S1130EE00403DAB2FB695A70FB7B03F00203DAB243
S1130EF0FB699A70FB7B03F00103DAB2FB69DA70D9
S1130F000023FB733B6A9B78022B20D107F10F036C
S1130F10622000211A4600F017F90346BB84BB8CFB
S1130F20002B14D17B680833BB61FB7B03F0040303
S1130F30DAB2BB691A70FB7B03F00203DAB2BB6955
S1130F405A70FB7B03F00103DAB2BB699A70002389
S1130F50FB733B6A5B78042B26D107F10F036320F4
S1130F6000211A4600F0F0F80346BB84BB8C002B2A
S1130F701AD17B680B337B61FB7B03F02003DAB26D
S1130F807B691A70FB7B03F01003DAB27B695A7039
S1130F90FB7B03F00203DAB27B699A70FB7B03F0FC
S1130FA00103DAB27B69DA700023FB733B6A1B78B6
S1130FB0082B1AD107F10F03642000211A4600F010
S1130FC0C3F80346BB84BB8C002B0ED17B680F3364
S1130FD03B61FB7B03F00203DAB23B691A70FB7BD3
S1130FE003F00103DAB23B695A70BB8C002B02D0C8
S1130FF040F60103FB84FB8C18462837BD4680BDB0
S113100080B58AB000AF78600023FB840023BB84E2
S11310100023FB737B683B623B6A9A783B6ADB780C
S11310201343DAB23B6A5B781343DAB23B6A1B7848
S11310301343DBB2FB7307F10F0360201946002250
S113104000F082F80346BB84FA8CBB8C1343FB8408
S11310507B680433FB61FB695A78FB691B78134393
S1131060DAB2FB699B781343DAB2FB69DB7813438A
S1131070DBB2FB7307F10F0361201946002200F075
S113108063F80346BB84FA8CBB8C1343FB847B68F4
S11310900833BB61BB699A78BB691B781343DAB226
S11310A0BB695B781343DBB2FB7307F10F03622068
S11310B01946002200F048F80346BB84FA8CBB8C26
S11310C01343FB847B680B337B617B695A787B69B0
S11310D09B781343DAB27B69DB781343DAB27B691A
S11310E01B781343DBB2FB7307F10F03632019462C
S11310F0002200F029F80346BB84FA8CBB8C13430E
S1131100FB847B680F333B613B695A783B691B78EE
S11311101343DBB2FB7307F10F036420194600226B
S113112000F012F80346BB84FA8CBB8C1343FB8497
S1131130FB8C002B02D040F60103FB84FB8C184689
S11311402837BD4680BD00BF80B588B000AF0346D8
S1131150B9607A60FB730023FB8300233B76002392
S11311607B7600237B7700233B7500237B7500236C
S11311703B77BB68002B04D101237B7700233B76AC
S113118002E0BB681B783B76FB7B5B00DAB27B7FBB
S11311901343DBB27B763B7E1B029AB27B7E9BB20F
S11311A013439BB29BB2184600F00CFD00F026FDE1
S11311B003463B773B7F7B757A7D7B7E9A4202D0E8
S11311C040F60103FB837B68002B02D03A7D7B68E9
S11311D01A70FB8B18462037BD4680BD80B586B09B
S11311E000AF78600023FB820023FB7300237B7530
S11311F037E07B7D032B1FD87B7D2733D9B27B7DE2
S113120008337A681344084619460022FFF79CFF06
S11312100346FB82FB8A002B0ED17B7D2B33D9B294
S11312207B7D08337A681344043308461946002248
S1131230FFF78AFF0346FB82FB8A002B0ED17B7DDE
S11312406833D9B27B7D10337A681344033308467C
S113125019460022FFF778FF0346FB827B7D0133AA
S11312607B757B7D072BC4D9FB8A002B16D17B6849
S113127010333B613B691A783B695B781343DAB2FC
S11312803B699B781343DBB2FB7307F10F032F20F9
S113129019460022FFF758FF0346FB82FB8A1846D3
S11312A01837BD4680BD00BF80B483B000AF7860FE
S11312B07B6800221A717B6800225A717B680022C5
S11312C09A717B680022DA717B6800221A727B684B
S11312D000225A727B6800229A727B680022DA72BA
S11312E07B6800221A737B6800225A737B68002291
S11312F09A737B680022DA737B6800221A740C37B5
S1131300BD465DF8047B704780B586B000AF00230E
S11313107B61314A3B1D1068516803C300F010FB28
S113132000F0B6FB00F0DAFB00F00AFC00F086FCEB
S113133000F01CFB00F014FC28480121FFF7D0FA50
S1131340FFF7C6F900F02CFA00F082FB0346002BED
S113135008D0FFF7D3F90346002B02D0FFF728FA91
S113136000E0F6E74FF4A0431B683B6145F2040339
S11313701B68FB601A4A1A4B1B6843F00073136026
S1131380174A174B1B6843F00043136000F056FCE8
S1131390F868396900F028F8114B1B6B1B0903F03E
S11313A00103002B17D000F0C3FC7B6901337B6180
S11313B07B69B3F57A7F07D10A4A0A4BDB6843F4A9
S11313C08033D36000237B613B1D40F22310194618
S11313D0012200F071FDDFE7C01F0000C81F0000FC
S11313E000400240C0F00F4080B582B000AF78608A
S11313F039607B680C4A13600C4A3B6813604FF0F9
S1131400E0234FF4A042C3F8082D084B1B6883F374
S11314100888064B1B6883F30988034B1B689847AD
S11314200837BD4680BD00BF1411002018110020EC
S113143080B483B000AF78600B46FB70FB78002B60
S113144004D17B684FF48032DA6074E0FB78012BBE
S113145004D17B684FF0FF32DA606CE0FB78022B3A
S113146004D17B684FF0FF32DA6064E0FB78032B31
S113147004D17B684FF40042DA605CE0FB78042B13
S113148003D17B680022DA6055E0FB78052B04D198
S11314907B684FF0FF32DA604DE0FB78062B04D115
S11314A07B684FF0FF32DA6045E0FB78072B04D10C
S11314B07B684FF0FF32DA603DE0FB78082B03D104
S11314C07B680022DA6036E0FB78092B04D17B6864
S11314D04FF0FF32DA602EE0FB780A2B04D17B68F0
S11314E04FF48042DA6026E0FB780B2B04D17B6852
S11314F04FF40042DA601EE0FB780C2B04D17B68C9
S11315004FF48032DA6016E0FB780D2B04D17B684F
S11315104FF0FF32DA600EE0FB780E2B04D17B68CB
S11315204FF0FF32DA6006E0FB780F2B03D17B68C3
S11315304FF48032DA600C37BD465DF8047B7047A7
S113154080B584B000AF786039600023FB817B688C
S11315501A683B681A607B685A683B685A607B6803
S11315609A683B689A607B68DA683B681A617B68B2
S11315701A693B689A610E4BDB6C03F470431B0BD6
S11315807B737B7B38681946FFF752FF3B68DB6847
S1131590B3F5803F04D23B684FF480525A6102E0B5
S11315A03B6800225A61FB8918461037BD4680BD4E
S11315B00080044080B588B000AFF860B9607A60FC
S11315C00023FB837B687B61FB689B683B61BA6893
S11315D03B699A4210D3FB68DA683B691A44BB68DA
S11315E09A4209D9BA683B69D31A03F50003BB6070
S11315F04FF40063BB611BE0FB681B683B61BA6886
S11316003B699A420ED3FB685A683B691A44BB682B
S11316109A4207D9BA683B69D31ABB604FF4805326
S1131620BB6105E00123FB8300237B610023BB61D5
S1131630BB695A1E7B691340002B01D00423FB8332
S113164020E0164B70221A70144B0922DA71134AE7
S1131650BB681B0CDBB29371104ABB681B0ADBB27C
S113166053710E4BBA68D2B21A71F86800F0A0FC3C
S11316700346FB837A69BB69D31A7B61BA68BB6989
S11316801344BB607B69002B02D0FB8B002BD8D0AA
S1131690FB8B18462037BD4680BD00BF00000240CA
S11316A080B586B000AFF860B9607A603B60002313
S11316B0FB827B6803F00703002B02D00423FB8228
S11316C065E0FB689B683B61BA683B699A420DD34D
S11316D0FB68DA683B691A44BB689A4206D9BA685F
S11316E03B69D31A03F50003BB6014E0FB681B6875
S11316F03B61BA683B699A420BD3FB685A683B6901
S11317001A44BB689A4204D9BA683B69D31ABB60CD
S113171001E00123FB8234E01F4B70221A701E4B40
S11317200722DA711C4ABB681B0CDBB293711A4A9C
S1131730BB681B0ADBB25371174BBA68D2B21A7179
S113174000237B750CE07A7D144B13443B613B69A9
S11317507A7D39680A4412781A707B7D01337B756F
S11317607B7D072BEFD9F86800F022FC0346FB824F
S1131770BB680833BB607B68083B7B603B6808330D
S11317803B607B68002B02D0FB8A002BC4D0FB8A11
S113179018461837BD4680BD0000024008000240CC
S11317A080B500AF09480A49FFF7CAFE03461A4646
S11317B0084B1A80074B1B88002B00D0FEE7064A13
S11317C0054B1B6843F48023136080BDF41F0000A5
S11317D0241100204011002000E100E080B582B017
S11317E000AF78600C4B0D4A1A600B4B1B680C4A17
S11317F093610B4879684FF48052FFF7DBFE034690
S11318001A46084B1A80074B1B88002B00D0FEE7B2
S11318100837BD4680BD00BF201100205D84FF1F36
S1131820241100204011002080B584B000AFF8607E
S1131830B9607A600A4B4FF0FF329A610848F96840
S11318407A68BB68FFF72CFF03461A46054B1A80DB
S1131850044B1B88002B00D0FEE71037BD4680BD2B
S1131860241100204011002080B400AF064A064B2A
S11318705B78DBB203F07F03DBB2537000BFBD467D
S11318805DF8047B704700BF0000024080B483B061
S113189000AF78607B6800221A800C37BD465DF883
S11318A0047B704780B48BB000AFF860B9607A6095
S11318B0FB681B887B6200233B6225E0BA683B6AB5
S11318C013441B787B617B691B027A6A53407B62F9
S11318D00023FB6112E07B6A5B00BB617B6A03F45B
S11318E00043002B05D0BB6983F4815383F00103CB
S11318F0BB61BB697B62FB690133FB61FB69072B3D
S1131900E9D93B6A01333B623A6A7B689A42D5D390
S11319107B6A9AB2FB681A802C37BD465DF8047B5B
S1131920704700BF80B483B000AF786039607B68D3
S11319301A883B681A800C37BD465DF8047B7047F3
S113194080B400AF074B084A5A60064B4FF6FF724B
S11319509A60044B4FF404521A60BD465DF8047B50
S1131960704700BF0020054020C528D980B400AFCF
S1131970304A304BD3F8343143F08043C2F8343129
S11319802D4A2D4B1B6943F4A06313612A4A2A4B49
S11319905B6943F4A0635361264A264BD3F8303184
S11319A043F08043C2F83031244B4FF480721A6400
S11319B0234A234B5B6943F480335361204A204B11
S11319C05B6843F4803353601A4A1A4BD3F82C31C2
S11319D043F08043C2F82C311A4B4FF480721A63DF
S11319E0194A194B5B6923F480535361114A114B13
S11319F0D3F8283143F08043C2F82831134A134BFB
S1131A009B6B43F440739363104A104BDB6B43F4BA
S1131A104073D3630D4A0D4B1B6C43F44073136442
S1131A200A4A0A4B5B6C43F440735364BD465DF849
S1131A30047B70470050064000D0044000C00440BE
S1131A40C0F00F4000B0044080F00F4000A00440FC
S1131A5080B483B000AF0023FB8002E0FB88013335
S1131A60FB80FB8840F6FE729342F7D9074B1B6953
S1131A7003F48053002B01D0012300E00023184617
S1131A800C37BD465DF8047B704700BF80F00F4003
S1131A9080B400AF104B40F20112C3F804210E4B86
S1131AA02422C3F8082100BF0B4BD3F8003103F400
S1131AB00003002BF8D1084B0122C3F8002100BF1A
S1131AC0054BD3F8003103F08073002BF8D0BD46EA
S1131AD05DF8047B704700BF0040064080B400AF4F
S1131AE000BF164BD3F8003603F40003002BF8D1E3
S1131AF0124B0022C3F80026104B40F20232C3F806
S1131B0004260E4B4FF4C012C3F8082600BF0B4B3B
S1131B10D3F8003603F40003002BF8D1074B01225D
S1131B20C3F8002600BF054BD3F8003603F08073DA
S1131B30002BF8D0BD465DF8047B7047004006409A
S1131B4080B400AF044B054A5A61034B1B69BD4680
S1131B505DF8047B704700BF004006401200010698
S1131B6080B400AF134B0022C3F8B420114B4FF0E4
S1131B704642C3F8B420104B00221A610E4B0022D7
S1131B809A610D4B0022DA610B4B00221A620A4B58
S1131B9001225A62084B094A1A66074B084A1A641A
S1131BA0054B03229A65044B09221A61BD465DF870
S1131BB0047B70470050064000D002400F000053E1
S1131BC00808090480B483B000AF0346FB8000BF5B
S1131BD0094B5B6903F00103002BF9D0064AFB882B
S1131BE05366054A044B5B6943F0010353610C37A8
S1131BF0BD465DF8047B704700D0024080B483B0DA
S1131C0000AF0023FB8000BF0B4B5B6903F00203B2
S1131C105B08002BF8D0084B5B6FFB80064A064B31
S1131C205B6943F002035361FB8818460C37BD46D9
S1131C305DF8047B704700BF00D0024080B483B0DD
S1131C4000AF00237B60354A344BD3F8903043F027
S1131C508043C2F89030324A314B1B6843F0004352
S1131C6013602F4A2E4B5B6823F4005353602C4AB5
S1131C702B4B1B6823F00043136000BF284B1B68E9
S1131C8003F080731B0E002BF8D0254B254A5A60B5
S1131C90234A234B5B6B43F48033536300237B6001
S1131CA008E01F4A7B682033002142F823107B6838
S1131CB001337B607B687F2BF3D900237B6009E0D1
S1131CC0174A7B6803F50873002142F823107B68E8
S1131CD001337B607B680F2BF2D9114B00221A6110
S1131CE00F4B4FF08062C3F8C0200D4B0E4AC3F86F
S1131CF0C4200B4B0D4A1A6000BF094B1B68002B14
S1131D0000D000BF00BF064B1B68002B00D000BFF3
S1131D100C37BD465DF8047B704700BF0050064099
S1131D20004002400600DB01000044141F000200D2
S1131D3080B596B000AF4A4BD3F8C43023F060436B
S1131D407B60474BD3F8C03003F0E0631B0E3B606D
S1131D50434BD3F8C03003F470231B0CBB60002347
S1131D6087F8573051E097F857303D4997F8572096
S1131D701232203251F8222004339B0007F158011B
S1131D800B4443F8582C97F8573097F85720920093
S1131D90033207F158010A4412F8482C114697F807
S1131DA057209200023207F15800024412F8482CDE
S1131DB012020A4497F857108900013107F15800BC
S1131DC0014411F8481C09040A4497F85710890083
S1131DD007F15800014411F8481C09060A44214936
S1131DE041F8232097F8573097F857201D4951F8A8
S1131DF0222004339B0007F158010B4443F8582C6C
S1131E0097F85730013387F8573097F85730012B3C
S1131E10A9D9002387F857300EE097F8573007F117
S1131E205802134413F8483C1846FEF779FC97F817
S1131E305730013387F8573097F85720BB689A42D8
S1131E40EBD3074BD3F880309BB2074A1360044BA3
S1131E509B683B65024B10221A635837BD4680BD10
S1131E6000400240441100205811002080B483B087
S1131E7000AF78600F4B01221A630E4A7B681B691E
S1131E80C2F888300B4A7B685B69C2F88C30094A17
S1131E907B685B68C2F88430064A7B689B681B04D5
S1131EA043F04463C2F880300C37BD465DF8047BD0
S1131EB0704700BF0040024080B59AB000AFF860A0
S1131EC0B9601346FB71FB689B04BB61FB79FB6142
S1131ED0002387F867302FE097F8673097F867207A
S1131EE092001146BA680A441278110697F86720DE
S1131EF092000132B868024412781204114397F830
S1131F00672092000232B8680244127812020A432F
S1131F1097F8671089000331B868014409780A43C7
S1131F2004339B0007F168010B4443F8542C97F8E1
S1131F306730013387F8673097F86730012BCBD9C6
S1131F4007F114031846FFF791FF6837BD4680BDBB
S1131F5080B582B000AF0BE00C4B1B6B1B0903F088
S1131F600103002B01D0FFF7E3FE7B6801337B60A4
S1131F70064B1B6B1B0903F00103002BECD17B68A0
S1131F80034A9342E8D90837BD4680BD0040024069
S1131F90FEFF020010B5431E0A44914204D011F81A
S1131FA0014B03F8014FF8E710BD000000000000EA
S1131FB001B40248844601BC604700BF0184FF1F8E
S1131FC01122334455667788000000000000400465
S1131FD004000000000000000000000005000000F4
S1131FE000000000000000000000000000000000ED
S1131FF000000000000000000000080000000010C5
S10B200000000014FFFFFFFFC4
S113200880B584B000AF78600023FB81124A124B7C
S11320181B78DBB263F07F03DBB2137007E07B68E5
S11320289B69B3F1FF3F02D07B689B6998470A4BD1
S11320381B78DBB2DBB25BB2002BF0DA064B1B7801
S1132048DBB203F07103002B01D00123FB81FB8970
S113205818461037BD4680BD0000024080B400AF6A
S1132068094B5B78DBB2DBB25BB2002B07DB064AB9
S1132078054B5B78DBB263F07F03DBB25370BD467C
S10F20885DF8047B704700BF00000240BC
S9030411E7
