S01C00004150505F5333324B3134345F4C45445F563038392E73726563A2
S1135000007000201154000051540000515400005D
S1135010515400005154000051540000000000009D
S113502000000000000000000000000051540000D7
S1135030515400000000000051540000515400007D
S113504051540000515400005154000051540000C8
S113505051540000515400005154000051540000B8
S113506051540000515400005154000051540000A8
S11350705154000051540000515400005154000098
S11353F0515400005154000051540000FFFFFFFFBE
S1135400FFFFFFFFFFFFFFFFFFFFFFFFFE7FFFFF29
S113541072B60B490A4A0A4B094C094D084E084F0B
S1135420B846B946BA46BB46BC4606488546064811
S113543080470648804762B600F09EF8FEE7000009
S11354400000000000700020555400008554000046
S1135450FFF7FEBF80B400AF084B094A5A60074B00
S11354605B68064B42F220121A60044B4FF6FF723F
S11354709A60BD465DF8047B704700BF002005407C
S113548020C528D980B48BB000AF304B3B62304B81
S11354907B61304BFB60304BFB61304B3B61304BED
S11354A0BB60304BBB61304B7B60304A304B9A421F
S11354B018D000237B620AE02D4A7B6A52F823202D
S11354C02A497B6A41F823207B6A01337B62294B9A
S11354D09B087A6A9A42EFD34FF0E023234AC3F839
S11354E0082D04E04FF0E023214AC3F8082D09E019
S11354F07B691A783B6A1A703B6A01333B627B69A9
S113550001337B61FA687B699A42F1D109E03B6916
S11355101A78FB691A70FB690133FB613B6901333B
S11355203B61BA683B699A42F1D105E0BB6900224C
S11355301A70BB690133BB617A68BB699A42F5D1C1
S11355402C37BD465DF8047B704700BF0084FF1F05
S1135550D4560000D45600000084FF1FD456000027
S1135560D456000000000020000000200080FF1F2F
S1135570005000000004000080B582B000AF00239A
S1135580FB7100F03FF800F063F800F093F81A4A5A
S1135590194BD3F8243143F08043C2F82431174A1D
S11355A0164B5B6C43F480735364154A144B5B696C
S11355B043F400335361124A114B9B6843F40033A4
S11355C093600F4A0E4BDB6843F40033D36000232F
S11355D0FB710DE00023BB8002E0BB880133BB807C
S11355E0BB884FF6FF729342F7D1FB790133FB710D
S11355F0FB79072BEED9E4E7005006400090044005
S113560000F00F4080B400AF104B40F20112C3F819
S113561004210E4B2422C3F8082100BF0B4BD3F8FE
S1135620003103F40003002BF8D1084B0122C3F826
S1135630002100BF054BD3F8003103F08073002B29
S1135640F8D0BD465DF8047B704700BF00400640BB
S113565080B400AF00BF164BD3F8003603F4000348
S1135660002BF8D1124B0022C3F80026104B40F255
S11356700232C3F804260E4B4FF4C012C3F80826B6
S113568000BF0B4BD3F8003603F40003002BF8D112
S1135690074B0122C3F8002600BF054BD3F80036A0
S11356A003F08073002BF8D0BD465DF8047B70478F
S11356B00040064080B400AF044B054A5A61034BD6
S11356C01B69BD465DF8047B704700BF004006407F
S10756D013000106B8
S903541197
